:1000000019C028C027C026C025C024C023C023C0D3
:1000100021C020C01FC01EC01DC01CC01BC01AC0F4
:1000200019C018C017C016C015C014C013C012C024
:1000300011C010C011241FBECFEFCDBFDFE3DEBF64
:100040002EE3A0E0BEE301C01D92AF30B207E1F79E
:10005000AAD0B6C4D5CF1F920F920FB60F9211241B
:100060002F933F934F935F936F937F938F939F93C0
:10007000AF93BF93EF93FF9381E0809353018091FF
:10008000040480618093040480918D0A82FF32C051
:1000900084E080938D0A2091A20A3091A30AE09116
:1000A000093EF0910A3E2E173F0708F46BC040E06E
:1000B00050E0BA018091053E9091063EA091073E26
:1000C000B091083E820F931FA11DB11D8E1B9F0B87
:1000D000A109B109840F951FA61FB71F8093053E84
:1000E0009093063EA093073EB093083E2093093EAE
:1000F00030930A3E8091013E9091023EA091033ED2
:10010000B091043E8C3221E3920721E0A207B105B1
:10011000F0F18091053E9091063EA091073EB0918E
:10012000083E80930B3E90930C3EA0930D3EB093FF
:100130000E3E1092053E1092063E1092073E10921F
:10014000083E81E08093003E1092013E1092023EF4
:100150001092033E1092043E809104048F7E80939F
:100160000404FF91EF91BF91AF919F918F917F9187
:100170006F915F914F913F912F910F900FBE0F9014
:100180001F90189540E050E160E070E093CF019639
:10019000A11DB11D8093013E9093023EA093033EAA
:1001A000B093043ED9CFCF93DF93CDB7DEB7E697B8
:1001B000CDBFDEBF82E18093000480E28093200403
:1001C000109204042FEF34E38CE021503040804043
:1001D000E1F700C0000090E088ED84BF90936100DB
:1001E00080E18093850186E08093980185E8809383
:1001F000880A8FEF9FE08093AE0A9093AF0A80E465
:100200008093800A80918E0A80FFFCCF81E48093E6
:10021000800A81E080930102A09125110A2E000C32
:10022000BB0BBC5F2EE830E2E7D0DC01CB014AE03B
:10023000B595A795979587954A95D1F78093080826
:100240009093090880E48093060897E088ED84BFC6
:1002500090937C00809141018111FCCF82E08093DA
:100260004701809151018111FCCF81E080935201BF
:10027000809151018111FCCF81E3809350018EE088
:10028000E4ECF9E89E012F5F3F4F6901D90101902D
:100290000D928A95E1F7789490E080E4482E82E40C
:1002A000582E8FE0682E712C28EE822E23E0922E9D
:1002B000A12CB12C33EF232E39E8332E8091003E50
:1002C000882309F446C01092003E60910B3E709165
:1002D0000C3E80910D3E90910E3EA30192016AD09A
:1002E0002BAB3CAB4DAB5EAB60910B3E70910C3ECB
:1002F00080910D3E90910E3EA30192015BD0A5012D
:10030000940158D0122F032FE22EF32E60910B3E52
:1003100070910C3E80910D3E90910E3EA50194018E
:1003200049D08BA99CA9892B91F5EF2809F17F93DE
:100330006F930F931F9325EE39E83F932F93DF922E
:10034000CF926CD0CDBFDEBF90E08091003E811196
:10035000BACFF601E90FF11D8081882309F4AECFF1
:100360002091040825FFAACF809302089F5FA6CFA3
:100370007F936F933F922F92DF92CF924FD00F9047
:100380000F900F900F900F900F9090E097CF7F936A
:100390006F930F931F939CA99F932BA92F9382ED8B
:1003A00099E89F938F93DF92CF9238D0CDBFDEBF75
:1003B00090E084CFA1E21A2EAA1BBB1BFD010DC049
:1003C000AA1FBB1FEE1FFF1FA217B307E407F50705
:1003D00020F0A21BB30BE40BF50B661F771F881FE1
:1003E000991F1A9469F760957095809590959B0177
:1003F000AC01BD01CF01089505D0B7FF0895821B60
:10040000930B0895A29FB001B39FC001A39F01D099
:10041000B29F700D811D1124911D0895AEE0B0E0D2
:10042000E3E1F2E0AAC20D891E8986E08C8309838C
:100430001A838FEF9FE78D839E83AE01475E5F4FE8
:100440006F89788DCE01019608D0EF81F885E00F95
:10045000F11F10822E96E4E0A9C2ABE0B0E0E2E327
:10046000F2E07DC26C017B018A01FC0116821782D9
:10047000838181FFBFC1CE0101963C01F6019381CA
:10048000F70193FD859193FF81917F01882309F402
:10049000ADC1853239F493FD859193FF81917F0140
:1004A000853221F4B60190E0C0D1E8CF912C212C07
:1004B000312CFFE1F315D8F08B3279F038F480322B
:1004C00079F08332A1F4232D20611DC08D3261F0BB
:1004D000803369F4232D216016C0832D8260382E6D
:1004E000E32DE4603E2E2AC0F32DF8601DC037FCDA
:1004F0002DC020ED280F2A3040F08E32B9F436FCA2
:1005000075C1232D2064322E19C036FE06C08AE044
:10051000989E200D1124922E11C0EAE02E9E200DEF
:100520001124222EF32DF0623F2E08C08C3621F4C8
:10053000832D8068382E02C0883641F4F70193FD80
:10054000859193FF81917F018111B3CF982F9F7D7A
:100550009554933028F40C5F1F4F9FE399830DC08F
:10056000833631F0833771F0833509F055C020C0F0
:10057000F801808189830E5F1F4F88248394912C1A
:10058000530112C02801F2E04F0E511CF801A08067
:10059000B18036FE03C0692D70E002C06FEF7FEFBF
:1005A000C50138D14C018201F32DFF773F2E15C0D4
:1005B000280122E0420E511CF801A080B18036FED5
:1005C00003C0692D70E002C06FEF7FEFC50117D146
:1005D0004C01F32DF0683F2E820133FC19C0822DAF
:1005E00090E088169906A0F4B60180E290E01DD153
:1005F0002A94F5CFF50137FC859137FE81915F0193
:10060000B60190E012D121102A9421E0821A9108BB
:100610008114910479F7E1C0843611F0893639F5F7
:10062000F80137FE07C060817181828193810C5F80
:100630001F4F08C060817181072E000C880B990B39
:100640000E5F1F4FF32DFF763F2E97FF09C0909549
:100650008095709561957F4F8F4F9F4FF0683F2E2B
:100660002AE030E0A3011DD1882E861844C08537CA
:1006700031F4232D2F7EB22E2AE030E025C0932DB9
:10068000997FB92E8F36C1F018F4883579F0AEC055
:10069000803719F0883721F0A9C0E92FE061BE2E1C
:1006A000B4FE0DC0FB2DF460BF2E09C034FE0AC09D
:1006B000292F2660B22E06C028E030E005C020E1D8
:1006C00030E002C020E132E0F801B7FE07C06081EF
:1006D0007181828193810C5F1F4F06C0608171819F
:1006E00080E090E00E5F1F4FA301DBD0882E8618BC
:1006F000FB2DFF773F2E36FE0DC0232D2E7FA22E21
:10070000891458F434FE0BC032FC09C0832D8E7E50
:10071000A82E05C0B82CA32C03C0B82C01C0B92C3E
:10072000A4FE0FC0FE01E80DF11D8081803321F48D
:100730009A2D997EA92E09C0A2FE06C0B394B39447
:1007400004C08A2D867809F0B394A3FC10C0A0FEE3
:1007500006C0B21480F4280C922C9B180DC0B21461
:1007600058F4B60180E290E060D0B394F8CFB214B0
:1007700018F42B1802C0982C212CA4FE0FC0B6012F
:1007800080E390E052D0A2FE16C0A1FC03C088E72F
:1007900090E002C088E590E0B6010CC08A2D867812
:1007A00051F0A1FE02C08BE201C080E2A7FC8DE205
:1007B000B60190E03AD0891430F4B60180E390E0BD
:1007C00034D09A94F8CF8A94F301E80DF11D80811A
:1007D000B60190E02AD08110F6CF222009F44ECE47
:1007E000B60180E290E021D02A94F7CFF60186810D
:1007F000978102C08FEF9FEF2B96E2E1C9C0FC0109
:100800000590615070400110D8F7809590958E0F3B
:100810009F1F0895FC016150704001900110D8F7AE
:10082000809590958E0F9F1F08950F931F93CF93E0
:10083000DF93FB01238121FD03C08FEF9FEF2CC0CD
:1008400022FF16C046815781248135814217530704
:1008500044F4A081B1819D012F5F3F4F20833183FC
:100860008C93268137812F5F3F4F2683378314C0B7
:100870008B01EC01FB010084F185E02D0995892BAA
:10088000E1F6D80116968D919C91179701961696D0
:100890008D939C931797CE01DF91CF911F910F916C
:1008A0000895FA01AA27283051F1203181F1E89406
:1008B0006F936E7F6E5F7F4F8F4F9F4FAF4FB1E053
:1008C0003ED0B4E03CD0670F781F891F9A1FA11D4E
:1008D000680F791F8A1F911DA11D6A0F711D811D4F
:1008E000911DA11D20D009F468943F912AE0269F14
:1008F00011243019305D3193DEF6CF010895462F73
:100900004770405D4193B3E00FD0C9F7F6CF462F53
:100910004F70405D4A3318F0495D31FD40524193BC
:1009200002D0A9F7EACFB4E0A69597958795779579
:100930006795BA95C9F700976105710508959B0100
:10094000AC010A2E06945795479537952795BA9589
:10095000C9F7620F731F841F951FA01D08952F9262
:100960003F924F925F926F927F928F929F92AF923F
:10097000BF92CF92DF92EF92FF920F931F93CF938C
:10098000DF93CDB7DEB7CA1BDB0BCDBFDEBF09944B
:100990002A88398848885F846E847D848C849B840F
:1009A000AA84B984C884DF80EE80FD800C811B811D
:1009B000AA81B981CE0FD11DCDBFDEBFED01089553
:0409C000F894FFCFD9
:1009C4002A2A205374617274202A2A0A0A00256490
:1009D4002E253033642025303364204D487A200A94
:1009E4000025642E25303364206B487A200A0025C4
:0709F4006420487A200A008C
:00000001FF
